:020000041000EA
:1000000000B5324B212058609868022188439860DF
:10001000D860186158612E4B002199600221596106
:100020000121F02299502B49196001219960352056
:1000300000F044F80222904214D00621196600F024
:1000400034F8196E01211966002018661A6600F04E
:100050002CF8196E196E196E052000F02FF8012189
:100060000842F9D1002199601B49196000215960AB
:100070001A491B48016001219960EB211966A021F2
:10008000196600F012F800219960164914480160C1
:100090000121996001BC002800D000471248134993
:1000A000086003C880F30888084703B5996A0420EC
:1000B0000142FBD001200142F8D103BD02B5186610
:1000C0001866FFF7F2FF186E186E02BD00000240BE
:1000D000000000180000070000035F00212200005C
:1000E000F4000018222000A00001001008ED00E03C
:1000F00000000000000000000000000074B24E7A12
:1001000000200420F7010010C3010010C5010010F9
:10011000C1010010C1010010C1010010C101001097
:10012000C1010010C1010010C1010010C701001081
:10013000C1010010C1010010C9010010CB01001065
:10014000CD010010CD010010CD010010CD01001037
:10015000CD010010CD010010CD010010CD01001027
:10016000CD010010CD010010CD010010CD01001017
:10017000CD010010CD010010CD010010CD01001007
:10018000CD010010CD010010CD010010CD010010F7
:10019000CD010010CD010010CD010010CD010010E7
:1001A000CD010010CD010010CD010010CD010010D7
:1001B000CD010010CD010010CD010010CD010010C7
:1001C00000BE00BE00BE00BE00BE00BEEFF3058054
:1001D000103800BEF2EB8871DC740010047500105A
:1001E0003402001090A31AE700201F49086006C8D7
:1001F00081F3088810471D48006800282FD10DA4FE
:100200000ECC002902D000F012F8F9E71849194A7B
:10021000002000E001C19142FCD1174988471749ED
:1002200088471749884700BEFDE701C901C29A42C5
:10023000FBD3704704750010C00000202403002089
:100240006877001000000420000004206877001088
:10025000001004200010042000000000704709482E
:1002600004F0ACFA0047000008ED00E0000000D008
:10027000280300205809002015350010E51400104F
:10028000D13400105756000006005250ABB36053F3
:10029000A473001006005250861C030294730010D1
:1002A000060052505422A29DB47300100500525013
:1002B000DE65F46868770010F8B5C04610B5064CE6
:1002C0002378002B07D1054B002B02D0044800E017
:1002D00000BF0123237010BD28040020000000008F
:1002E00048610010044B10B5002B03D003490448AB
:1002F00000E000BF10BDC046000000002C0400203C
:100300004861001030B585B00C4D28600123009382
:100310000022142105F0AEFE0F246C44286800234F
:10032000009301332200142105F0B0FE2378902BB6
:1003300002D0034805F09AFB05B030BD440400200C
:1003400048610010F0B585B08408013C03200440EA
:100350000F226A441A271770114D28680123009351
:10036000142105F087FE28680026009601230E223E
:100370006A44142105F08AFE6B469A7B3F231340A2
:100380006A4693731773A401234353732868009636
:10039000022303AA142105F06DFE05B0F0BDC0468E
:1003A00044040020F0B585B004000F226A441927E8
:1003B0001770114D286801230093142105F05AFE8F
:1003C00028680026009601230E226A44142105F0B5
:1003D0005DFE6B46987B7F2303406A4693731773D9
:1003E000E4012343537328680096022303AA1421CF
:1003F00005F040FE05B0F0BD4404002000B585B016
:100400007E236A46137338335373054B18680023F1
:100410000093023303AA142105F02CFE05B000BDA1
:100420004404002000B585B07E236A46137333333D
:100430005373054B186800230093023303AA142159
:1004400005F018FE05B000BD4404002030B589B0A9
:100450000278072313400370437801251D4045703F
:100460008378032B01D900238370837803241C40F5
:100470008470C378022B01D90023C370C378032191
:100480001940C170028980235B019A4201D32B4B32
:10049000038103891B051B0D0381428980235B01B6
:1004A0009A4201D3254B438143891B051B0D438190
:1004B000828980235B019A4201D3204B8381838907
:1004C0001B051B0D838103AA3523137003785B0181
:1004D0002D012B435BB2A40023435BB20B4353704B
:1004E000362393700379D370372313714379537193
:1004F000382393718379D37139231372038953722B
:100500003A2191721B0AD3723B23137343895373AD
:10051000023191731B0AD3733D231374838953747F
:10052000023191741B0AD374054B186800230093A1
:1005300014332A3905F09EFD09B030BDFF0F0000CD
:100540004404002030B589B00278072313400370BB
:10055000457845708378032B01D900238370837815
:1005600003241C408470C378032B01D90023C3707B
:10057000C37803211940C170428980235B019A42EC
:1005800001D32F4B438143891B051B0D4381828976
:1005900080235B019A4201D3294B83818289120512
:1005A000120D8281C28980235B019A4201D3244BC0
:1005B000C381C2891205120DC28102AA3F231370A2
:1005C00003785B012D012B435BB2A40023435BB294
:1005D0000B43537040239370017949000523C356A0
:1005E0000B43D37041231371837953714223937169
:1005F0000389190AD17143211172537244239372F2
:100600004389D372023111731B0A537346239373C8
:100610008389D373023111741B0A53744823937472
:10062000C389D374023111751B0A5375054B1868C1
:10063000002300931633353905F01CFD09B030BD99
:10064000FF0F00004404002030B589B00278072372
:1006500013400370437801251D4045708378032BB8
:1006600001D900238370837803241C408470C378ED
:10067000032B01D90023C370C37803211940C17033
:10068000428980235B019A4201D32F4B43814389E6
:100690001B051B0D4381828980235B019A4201D394
:1006A000294B838183891B051B0D8381C28980238C
:1006B0005B019A4201D3244BC381C3891B051B0DE7
:1006C000C38102AA4A23137003785B012D012B43D7
:1006D0005BB2A40023435BB20B4353704B23937074
:1006E000017949000523C3560B43D3704C23137182
:1006F000837953714D2393710389190AD1714E2166
:10070000117253724F2393724389D3720231117362
:100710001B0A5373512393738389D373023111746A
:100720001B0A537453239374C389D3740231117514
:100730001B0A5375054B1868002300931633403984
:1007400005F098FC09B030BDFF0F00004404002004
:10075000F0B5C64600B584B080460B226A44192520
:100760001570124E306801230093142105F082FCAD
:1007700003AC30680027009701230D226A4414213E
:1007800005F084FC2570607803239843607043462D
:10079000034363703068009702232200142105F0A0
:1007A00069FC04B080BCB846F0BDC04644040020DB
:1007B00030B587B004000F226A44042313701E4D25
:1007C0002868033B0093142105F054FC286800239B
:1007D0000093063304AA142105F058FC6B461B7CD9
:1007E0006A46527C12029B182360802212019342B7
:1007F00003DB124A94466344236004AA9378D278B8
:1008000012021343636080221201934203DB0B4AFE
:1008100094466344636004AA137952791202134325
:10082000A36080221201934203DB044A944663448E
:10083000A36007B030BDC0464404002000F0FFFFB5
:10084000F0B5C64600B586B080460F0013226A4454
:100850001F261670144C206801230093142105F004
:1008600009FC206800250095022305AA142105F043
:100870000DFC6B46597D1B7D1B02194309B2434693
:100880009F4039438BB203AA16701B0A5370202372
:100890009370D170206800951C3B142105F0EAFB91
:1008A00006B080BCB846F0BD44040020F0B5CE468A
:1008B000474680B585B0804689460E226A44212489
:1008C0001470134D286801230093142105F0D2FB06
:1008D0000F266E4428680027009701233200142158
:1008E00005F0D4FB6B461C734C4643469C40337862
:1008F0001C436B465C7328680097022303AA1421EB
:1009000005F0B8FB05B0C0BCB946B046F0BDC04666
:1009100044040020F0B5CE46474680B585B08046F9
:1009200089460E226A4423241470134D286801233B
:100930000093142105F09EFB0F266E4428680027C3
:10094000009701233200142105F0A0FB6B461C73B5
:100950004C4643469C4033781C436B465C73286886
:100960000097022303AA142105F084FB05B0C0BC44
:10097000B946B046F0BDC04644040020F0B585B08D
:100980000AAC2578032420400727394023401E0065
:100990002240254003AC57232370C00008436070F9
:1009A0000133A3701301B60033432B43E370054BAF
:1009B00018680023009304332200142105F05AFB29
:1009C00005B0F0BD4404002010B50300FF200EE088
:1009D0004000C0B2013B002B07D042B2002AF7DA38
:1009E000400031225040C0B2F4E701392300002911
:1009F00004D05C1C1B7858400823ECE710BD0000B5
:100A0000014B18607047C04648040020014B187025
:100A10007047C0464F090020014B18707047C04610
:100A20004E090020F0B587B005000F236B44FD226E
:100A30001A705E4B1B78002B12D15D4A1278012A86
:100A400008D00A24022A0CD10D326A44E021117028
:100A5000022406E00F216944F62008700524F1E71E
:100A60000A24012B18D0022B1CD0032B20D0042BDE
:100A700024D0052B28D0062B2CD04E4B18680023F1
:100A8000009301330F226A44442105F0F3FA002851
:100A900026D1002007B0F0BD0F226A443921117021
:100AA000454CE0E70F226A44322111706E24DCE7E6
:100AB0000F226A442F2111703F4CD8E70F226A445D
:100AC000242111706E24D4E70F226A441E21117074
:100AD000394CD0E709336B4415221A706E24CCE7E9
:100AE000200001F07BFE334B18680023009306338F
:100AF00004AA442105F0CAFA002850D004A884783A
:100B00000221FFF761FF84424BD104AB5C790221E3
:100B100013206844FFF758FF844244D104AC207886
:100B200000026378C01804F08DFD071CE078000215
:100B30002379C01804F086FD061C2049381C04F0F7
:100B400044FD1F4904F02BFD1E4904F01EFD041C4A
:100B50001D4B18601D49301C04F037FD184904F086
:100B60001EFD1B4904F011FD1A4B18601A4904F0D0
:100B700063FD002802D0174B174A1A60154B1868FE
:100B8000002104F053FD002805D16C60114B1B6857
:100B90002B6001207EE70F4B00221A60F5E7002052
:100BA00078E7002076E7002074E7C0464E09002071
:100BB0004F090020480400204C04000000002F438F
:100BC00000FF7F47000034425C0400200000FA422E
:100BD0000000C040540400200000C842014B1860CF
:100BE0007047C0464C04002010B584B006AC247891
:100BF000C0028901084300B2120110435B00184390
:100C00002043084B034003AA0021117053701B0AB4
:100C10009370054B186800910323483105F02AFAB8
:100C200004B010BDF31B00004C04002000B585B0DB
:100C300000236A4613735373044A10680093023307
:100C400003AA482105F016FA05B000BD4C040020A7
:100C500000B585B003AA012313705070000A90708C
:100C6000044B1868002300930333482105F002FA6F
:100C700005B000BD4C04002000B585B003AA0223D6
:100C800013705070000A9070044B18680023009392
:100C90000333482105F0EEF905B000BD4C040020F7
:100CA00010B584B00F226A44042313700A4C2068E4
:100CB000033B0093482105F0DDF9206800230093F1
:100CC000023303AA482105F0E1F96B46187B5B7BF0
:100CD0001B02184304B010BD4C04002010B584B0B2
:100CE0000F226A44052313700A4C2068043B0093CA
:100CF000482105F0BFF9206800230093023303AABE
:100D0000482105F0C3F96B46187B5B7B1B02184337
:100D100004B010BD4C040020014B18607047C04661
:100D20005004002010B584B00F226A4408231370C9
:100D30000A4C2068073B0093102105F09BF92068BE
:100D400000230093023303AA102105F09FF96B469C
:100D5000187B5B7B1B02184304B010BD50040020BD
:100D600010B584B00F226A44092313700A4C20681E
:100D7000083B0093102105F07DF9206800230093C3
:100D8000023303AA102105F081F96B46187B5B7BC7
:100D90001B02184304B010BD5004002010B584B0ED
:100DA0000F226A440A2313700A4C2068093B0093FF
:100DB000102105F05FF9206800230093023303AA95
:100DC000102105F063F96B46187B5B7B1B0218430F
:100DD00004B010BD5004002010B584B00F226A4446
:100DE0000B2313700A4C20680A3B0093102105F076
:100DF00041F9206800230093023303AA102105F073
:100E000045F96B46187B5B7B1B02184304B010BD91
:100E10005004002010B50400FFF784FF2080FFF786
:100E20009FFF6080FFF7BAFFA080FFF7D5FFE0804B
:100E300010BD000070B584B016001C00052800D954
:100E4000052003AA0025157001434BB233435BB262
:100E50002343DBB2537077210B405370044B186867
:100E600000950223673905F005F904B070BDC0464E
:100E70005004002070B584B00F226A44002515701C
:100E8000084E306801230093102105F0F3F803ACFD
:100E90003068009502232200102105F0F7F8207831
:100EA00004B070BD5004002010B5FFF759FF0400D6
:100EB000FFF7E0FF70231840302839D01ED81028E3
:100EC0002CD0202809D1200003F0A8FF224A234B70
:100ED00003F033FF03F0EAFF0CE0002809D1200003
:100EE00003F09CFF1C4A1E4B03F027FF03F0DEFFBC
:100EF00000E01C4804F0C8FB80B210BD402821D09F
:100F0000502809D1200003F089FF134A164B03F043
:100F100014FF03F0CBFFEDE71248EBE7200003F0EE
:100F20007DFF0D4A114B03F008FF03F0BFFFE1E71F
:100F3000200003F073FF084A0D4B03F0FEFE03F0A0
:100F4000B5FFD7E7200003F069FF034A094B03F020
:100F5000F4FE03F0ABFFCDE77AAA436E861BB03FE9
:100F6000861BD03F000080BF861B803F861BC03F92
:100F7000861BA03F861B903F70B506000D00140035
:100F80000D4905F04BF80321280000F01FFC032158
:100F9000200000F01BFC00220121280000F02EFCA4
:100FA00000220121200000F029FC044B1E60044BAC
:100FB0001D70044B1C7070BDA086010058040020F9
:100FC0004D0900204C09002010B5094B1868FFF7A7
:100FD00099F9C82001F002FCFFF710FAC82001F0CF
:100FE000FDFB0220FFF7B4FB0820FFF7ABF910BDB3
:100FF0005804002000B585B007226B461A70012303
:1010000069464B7000238B70CB7064216846017178
:1010100032394171827103814381F533FF3383811A
:1010200001210920FFF70CFC01210120FFF73EFC04
:101030006846FFF70BFAC82001F0D0FB05B000BDF1
:1010400000B585B007226B461A70002369464B71C4
:101050000121684601714170C370837002812B3297
:10106000827143818381F533FF33C38101210A20DB
:10107000FFF7E6FB01210220FFF718FC6846FFF7A7
:1010800061FA05B000BD00B585B007226B461A7045
:10109000002369464B710121684601714170C3709C
:1010A000837002812B32827143818381F533FF3358
:1010B000C38101210B20FFF7C3FB01210320FFF7B0
:1010C000F5FB6846FFF7C0FA05B000BD00B583B078
:1010D0001020FFF737F90120FFF764F90121022002
:1010E000FFF7AEFB01210320FFF7AAFB0121062039
:1010F000FFF710FC02230093013B01220021002096
:10110000FFF73CFCC82001F069FB03B000BD10B53F
:1011100001210020FFF794FBFFF784F9C82001F0BC
:101120005DFB10BD10B5042805D88000084B1B5886
:101130009F46FFF75FFF10BDFFF782FFFBE7FFF75A
:10114000A2FFF8E7FFF7C2FFF5E7FFF7E0FFF2E7DE
:101150005C61001010B5054C2000FFF729FBA36867
:1011600062682168024804F0B1FC10BDB00500209F
:101170007061001010B5054B1868FFF741FC0020A6
:10118000FFF744FC0020FFF747FC10BD5804002087
:1011900070B582B00A4C2000FFF744FC60682668F6
:1011A00004F07AFA04000D00301C04F075FA009087
:1011B000019122002B00034804F088FC02B070BDAE
:1011C0001C0800208061001010B5054B1868FFF75F
:1011D000A3FD0023002200210020FFF72BFE10BDFD
:1011E0005804002010B50A4C2000FFF713FE218898
:1011F0006288A388074804F069FCE188064804F087
:1012000065FCFFF751FE0100044804F05FFC10BDCF
:1012100004060020B4610010D8610010E4610010E1
:1012200000B583B00A4B1868FFF7D8FCFFF7FEFC47
:10123000002300930133002200210020FFF7D4FC9B
:101240000448FFF705FD3C20FFF716FD03B000BD85
:10125000580400201027000070B5FFF721FD074D4E
:101260002880FFF73BFD064C20802988054804F0C4
:101270002DFC2188044804F029FC70BD4809002099
:101280004A090020FC6100101862001070B50400CB
:1012900016001D0001F024FF0221300000F096FA34
:1012A0000221280000F092FA21003031226BC02385
:1012B0001B021A4080235B010B431A6000230122AA
:1012C0000821200001F0E2FE70BD0000022808D0D5
:1012D00003280AD0012800D07047064B01221A705B
:1012E000FAE7054B01221A70F6E7044B01221A7047
:1012F000F2E7C04653090020540900205509002098
:10130000F0B5CE46474680B583B007000023019371
:1013100000259946002635E04346FB185B78442BB0
:101320003AD14346FB189B783A2B35D101AB492281
:101330001A70053A5A7002350123994621E0434656
:10134000FB185B78432B29D14346FB189B784B2B2A
:1013500024D14346FB18DB783A2B1FD101AB412245
:101360001A7002325A7008329A7003350123994676
:1013700007E04A46002A2FD03601092B23D8303CFB
:1013800036190135A8467C5D002C29D02100314852
:1013900004F09CFB492CBFD0412CD0D02300303B23
:1013A000DBB2092BE5D92200613AD2B2052AE0D995
:1013B0002200413AD2B2052ADBD93A2CE1D12648A3
:1013C00004F054FB19E02300613BDBB2052B01D88C
:1013D000573CD5E7373CD3E7204804F047FB0CE007
:1013E00001AB1B78492B0DD0412B03D101AB5B78AE
:1013F000432B22D0184804F039FB03B0C0BCB946D7
:10140000B046F0BD01AA5278442AEDD101AC3200B9
:101410002100134804F05AFB2378492B12D0412BAA
:10142000EBD101AB5B78432BE7D101AB9B784B2B26
:10143000E3D10C4B01221A70DFE701AB9B784B2BF9
:10144000D8D1E3E76278442AE9D1F0B2FFF73EFF52
:10145000D3E7C046346200105C62001038620010AE
:10146000746200105009002070B582B0194B9B695E
:1014700010210A001A40194201D002B070BD6B461B
:10148000D91D002A09D1134B9B69DB06FBD4114BF4
:101490001B680B7001320131F3E76B46DA790A2AD7
:1014A0000AD00D490B680D48C25401330B60092B5B
:1014B000E3D900220A60E0E7074D084C00262B68BC
:1014C000E6542100064804F001FB2000FFF718FF56
:1014D0002E60D2E7008003407C04002070040020CE
:1014E0008C620010F0B5C64600B58EB004F0FAFA72
:1014F00017221621A248FFF73FFDE12119231822E8
:101500004902A048FFF7C2FEFFF75EFD0020FFF78B
:1015100009FEFFF72FFEFFF757FEFFF781FE99E068
:1015200037226A441470002108E0964B9B699B06A1
:10153000FBD41478934B1C60013101320029F4D0A4
:1015400003780D3B5A425341DBB201300478002C42
:1015500029D0002BE4D18C4B02229B5EA34204D005
:1015600037226A441470002116E037226A440D23A2
:101570001370002108E0834B9B699B06FBD4157810
:10158000804B1D60013101320029F4D0E8E7147866
:101590007C4B1C60013101320029D1D1794B9B6910
:1015A0009B06FBD4F3E7794B1B78002B4ED0784B8E
:1015B0001B78002B04D00023744A1370744A1370F4
:1015C000744B1868002327E037226A441470002106
:1015D00000291BD16B4B9B699B06FBD41478694B8C
:1015E0001C6001310132F3E737226A440D23137086
:1015F000002104E01578634B1D60013101320029A0
:1016000014D1604B9B699B06FBD4F3E703780D3B39
:101610005A425341DBB201300478002C16D0002B23
:10162000D2D1594B02229B5EA342DDD037226A44BD
:10163000147000210029E9D1524B9B699B06FBD411
:101640001478504B1C6001310132F3E7524B1B7888
:10165000002B28D1FFF77EFDFFF79AFDFFF7C2FDB3
:10166000FFF7FAFDFFF700FF4C4B1B78002B9AD0D9
:10167000474B1B78002B04D00023484A1370444A80
:101680001370474B1B688021464C474A12680192F1
:10169000464A12680092464A4900200003F062F868
:1016A0000023200052E7434B5E681868424B1A88BB
:1016B00059889F8880239846404C414B9D680A95E5
:1016C0005D6809951B6808930797069105923D4B45
:1016D0001B88049303F0E0FF02900391301C03F099
:1016E000DBFF00900191384A43465900200003F087
:1016F00039F80023200027E037226A4414700021C3
:1017000004E014781F4B1C6001310132002915D10F
:101710001C4B9B699B06FBD4F3E737226A440D23DD
:101720001370002100291AD1164B9B699B06FBD42C
:101730001578144B1D6001310132F3E703780D3B3E
:101740005A425341DBB201300478002C00D181E7CA
:10175000002BD1D10C4B02229B5EA342DDD037225D
:101760006A44147000210029E8D1064B9B699B064E
:10177000FBD41478034B1C6001310132F3E7C046FF
:10178000000300200080034040090020540900208D
:10179000500900203802002055090020530900207C
:1017A00044020020B00400203C020020400200203F
:1017B0009C6200101C080020040600201C0700206A
:1017C000B005002048090020BC62001010B583005D
:1017D000084A944663441C6840226240C024144076
:1017E0008022520113431C60C000034B9C4660449E
:1017F000416010BD04C001400040014080000B4B1F
:101800009C46604400290DD00823002A0CD00422F5
:101810001343026853400C221340802252011043AC
:10182000036070470023F0E70022F1E704C00140A5
:10183000034B1B6802201840431E9841C0B27047FA
:1018400000C00640EFF3108072B6034B1B68002BFC
:10185000FBD0BFF35F8F70472C0100D0BFF35F8FC9
:10186000024B00221A6080F3108870472C0100D0D0
:10187000F8B506000C001500FFF7E4FFE308F718C1
:10188000F15C07222240012393400B4205D1DBB2D9
:101890000B433B70FFF7E2FFF8BD2100280001F089
:1018A000B5FE0000002307E0054A9A189200BFF336
:1018B0005F8F0021116001331F2BF5D97047C0469F
:1018C00040000034054A1078431CDBB21370172B1C
:1018D00002D9130010221A707047C0464802002037
:1018E000074B9B68103080001950BFF35F8FBFF328
:1018F0005F8F044B0021196082F310887047C04647
:1019000000ED00E0240100D010B5091A081F0A4BB1
:101910009C466144094A914208D8C30706D4401046
:101920004005400D064B184380B210BD054B064ADA
:10193000A321064801F0D0FDFC070000FE0F0000C7
:1019400000E0FFFF64630010D46500109463001092
:1019500010B5091A04394C08090B08D14905490D7D
:10196000064A11430180064B2343438010BD054BBB
:10197000054AAB21054801F0AFFDC04600F0FFFF6E
:1019800000F8FFFFF0630010A865001094630010DA
:1019900001238340034A10681840431E9841C0B297
:1019A0007047C04600E100E0002904D0034B1860F6
:1019B000034B18607047034B1860FBE780E200E0C0
:1019C00000E100E080E100E010B501238340180051
:1019D000FFF7EAFF10BD0000024B9B68103080004B
:1019E000C058704700ED00E070B504000D00EFF343
:1019F000108672B60C4B1B68002BFBD0BFF35F8FB9
:101A00002000FFF7E9FF094B984201D0A84205D119
:101A1000320029002000FFF763FF70BD044B054A28
:101A20008621054801F058FD240100D0CD010010A9
:101A300000640010F065001094630010F0B5CE460D
:101A4000474680B583B006000D00EFF3108872B6EC
:101A5000564B1B68002BFBD0BFF35F8F544B9A682B
:101A600034001034A300D758524B9F4207D0AF42E6
:101A700000D198E00197504BFB1A2F2B09D9424611
:101A800039003000FFF72CFF03B0C0BCB946B046A8
:101A9000F0BD3000FFF77CFF814600213000FFF7EA
:101AA00093FFBFF35F8FEFF30581002901D08C42D4
:101AB00011D10123019C9C430022A368AB4212D0A8
:101AC0000622A256002A0DDB53009B189B00220021
:101AD000394CE418F1E73621384B394AFF3139489F
:101AE00001F0FAFC2200AB4256D106256557002DC5
:101AF00038DB6B005B199A002F4B9B189A68A26029
:101B0000DA79E27106229A56A2719B795BB2002BB8
:101B10000FDA2D48A0806B005B199B00264AD31872
:101B20002A4A11789971157049463000FFF74CFF29
:101B3000A5E7201D6B005B199B001F4A9B181A1D0F
:101B40009B88D90A1C2907D15B055B150233590014
:101B50005118FFF7D9FEDDE71D4B1E4AB121194888
:101B600001F0BAFC002912D1002A0ED0FF23937194
:101B7000194B9380154A1378A371184B0E49641AB8
:101B8000644163431B0D1370CEE70A4FF2E7201D3B
:101B90001349FFF7DDFEC7E76A21124B084AFF3100
:101BA000084801F099FC034F69E7C046240100D0C2
:101BB00000ED00E0CD0100104C0200201465001083
:101BC000C06500109463001001BD000052090020A0
:101BD000FC640010E065001001BDFFFFAAAA000030
:101BE000860200204865001070B5012101432E4B8C
:101BF000CB1A2F2B28D8EFF30583002B2BD0EFF334
:101C0000108C72B6294A1268002AFBD0BFF35F8F8E
:101C1000274A0400244D641B64416243120D54B2F0
:101C2000244A92689B00D2588A421BD00022032A81
:101C300032D853009B189B001B49CB189B795BB291
:101C4000A3421FD00132F2E7C7211B4B1B4A4900B8
:101C50001B4801F041FC92211A4B184AFF311848E9
:101C600001F03AFC134A92681749D150174B1A7881
:101C700082711C70BFF35F8F0C4B00221A608CF3D3
:101C8000108870BD0D005300991889006918FF264F
:101C90008E710F4A8A80E9E7D1210E4B074A49002D
:101CA000074801F019FCC0464C020020240100D076
:101CB000AAAA000000ED00E0506500108C6500103D
:101CC0009463001078650010CD01001052090020C7
:101CD00001BDFFFF846500100022044B02E00449AF
:101CE00002C30132072AFAD97047C04600E400E077
:101CF00080808080024B9C4661448900016070476F
:101D00004000003410B50400FFF7DCFD01002000A6
:101D1000FFF7F0FFFF232371BFF35F8F10BD10B5F6
:101D20000400FFF7CFFD01002000FFF7E3FFFF23D2
:101D3000237100236371BFF35F8F10BD70B5050081
:101D40000C00080000F0FEFE0949200000F03EFEF5
:101D5000FFF7B8FD074B9C466044800068602C7517
:101D6000D0231B061B786B75A400034BE55070BD98
:101D700081200010400000340C0600200A4B1A6835
:101D8000EFF3108172B61368002BFCD0BFF35F8FA6
:101D9000054B1B68BFF35F8F00221A6081F3108828
:101DA00040BF0020002170472C09002010B50029F9
:101DB00022D003681B7B99421ED8174B9C46614476
:101DC000090183689C4661440C684968002A19D05F
:101DD00003681B7B9A4215D883680F488446624487
:101DE00012019A1810685368020001208B4201D832
:101DF0000ED00020C0B210BD084B094A3C21094852
:101E000001F06AFB054B064A3C21064801F064FBE1
:101E1000A242EFD8EDE7C046FFFFFF0FC0670010FA
:101E2000406A00106C67001010B500291ED0037BBB
:101E300099421BD84B005B18033B0468A4466344DB
:101E4000002919D0002A1DD0914221D0002A25D086
:101E5000047BA24222D8046850008018033820185E
:101E60008170197800291FD11A7010BD104B114ACA
:101E70006821114801F030FB104B114A6F310E48B8
:101E800001F02AFB0F4B0E4A70210B4801F024FB96
:101E90000D4B0B4A7121084801F01EFB044B054A0B
:101EA0006821054801F018FB41701A70DDE7C04653
:101EB000E4670010AC6A0010006800106868001049
:101EC000886A0010746800108068001070B5060001
:101ED0000D001400002914D0002A14D08068736803
:101EE0009847002806D0220029003000FFF79CFF09
:101EF000280007E02A0021003000FFF795FF2000AE
:101F000000E0100070BD0800FCE70000F0B583B0F1
:101F10000500009201930AAB1C780BAB1F78002CD4
:101F200026D003685A7B944207D10123002B19D194
:101F3000002C3BD1200003B0F0BD002C0CD01A7B4C
:101F4000944209D81A6863001B19033BD3189B7885
:101F5000002BEBD00123E9E73E4B3F4A68213F4885
:101F600001F0BAFA3E4B3F4A67213F4801F0B4FA0C
:101F700003689C7B002CDBD012D01A7B94420FD8D4
:101F800062001219033A19688C46624451789973B9
:101F9000002900D1D9730023937053701370C7E7E1
:101FA0002C4B2D4A68212D4801F096FA002C3AD08E
:101FB0002B681B7B9C4236D82C4BE3181B01AA686C
:101FC00094466344009A1A60019A5A60089A9A608B
:101FD000099ADA602E68002C2BD030D0337B9C42DB
:101FE0002DD863001B19033B3268944663440022DA
:101FF0009A705A701A70717B22003000FFF766FFEA
:102000007073844200D095E7287D009A019B00F010
:1020100025FD061E01D0002F17D00C9B002B00D1F0
:1020200088E71E7086E7124B124A3C210E4801F0E9
:1020300053FA114B114AA521084801F04DFA054BFE
:10204000054A6821054801F047FA2868210000F098
:102050003DFFE2E7E4670010AC6A00100068001082
:1020600098680010B86A00106C670010FFFFFF0F3F
:10207000C0670010406A0010686700109C6A00107A
:10208000F0B5DE4657464E464546E0B58BB0099062
:10209000002308938200B54BD658370052E0B44B6A
:1020A000B44A3F21B44801F017FAB44BB44A3C217A
:1020B000B44801F011FA002901D1002869D10021AA
:1020C000404600F0F9FEA04219D12A686B680692DA
:1020D0000793AB689846EB689A464346002B14D0AA
:1020E000002C18D03B681B7B9C4214D8631EFA68F6
:1020F000D35C08931B0218433861002015E0A24B03
:10210000A24A8E219F4801F0E7F9A14B9F4A9221F4
:102110009C4801F0E1F9994B9E4A4121994801F010
:10212000DBF900239A46984600207B68BFF35F8F57
:1021300000221A6086F310884346002B32D1002813
:1021400000D10CE100F0FEFB02000B1EA7DB00201B
:102150000021069007917868EFF3108672B6016847
:102160000029FCD0BFF35F8F396888464C7B002C78
:10217000D7D09AD0097B8C4297D8874965182D0112
:10218000B9688C46654428686968801A99410029B5
:1021900091DD2A686B68099800F060FC00239A467C
:1021A0009846C2E7089B1B022343994651461800F4
:1021B000C04705000E007A68EFF3108B72B6136803
:1021C00059424B41D9B2002BF9D1BFF35F8F002E9A
:1021D0001EDB002E46DD3B69002B47D04B456DD101
:1021E00000F0B0FB02000B1E6EDB52197341002B96
:1021F00070DB002B72DB002104910131039102940A
:1022000051460191414600913800FFF77FFE4CE0B6
:102210003B69002BDDD04B4514D1069A079B521B1E
:10222000B341002B14DB002B16DB0021049101319C
:102230000391029451460191414600913800FFF705
:1022400065FE32E0554B514AA1214E4801F044F958
:1022500001225242524BE6E7454B464A3F2146484F
:1022600001F03AF9002E01D1002DB4D13B68002CC9
:1022700050D05A7B944237D1012100294AD1DA7BD0
:10228000002A4DD19A7B002A03D1DA7B002A5AD149
:102290009C73DC73002C5CD03B681B7B9C4258D841
:1022A000FA68013C135D0133135500233B617A68E2
:1022B000BFF35F8F13608BF3108843E7374B334ACC
:1022C000A421304801F008F9294B2A4A3F212A4825
:1022D00001F002F901225242314B8AE7244B254A90
:1022E0003F21254801F0F8F8002C0DD01A7B9442CC
:1022F0000AD862001219033A186884466244927838
:10230000002ABAD00121B8E7264B274A682127487E
:1023100001F0E2F8264B274AF621244801F0DCF8C8
:10232000002A0AD0197B8A4207D851008A18033A3A
:1023300019688C4662445470A4E71A4B1A4A682103
:102340001A4801F0C9F81C4B1A4AFB21174801F042
:10235000C3F80A4B0F4A41210A4801F0BDF80BB0FF
:10236000F0BCBB46B246A946A046F0BD0C06002014
:102370007C6600100C6A001098660010C0670010A0
:10238000406A00106C670010C0680010246A0010DA
:10239000D8680010646A0010FFFFFF0FE4680010A7
:1023A000FFFFFF7FE4670010AC6A001000680010B8
:1023B00020690010786A00104469001010B50C4BB9
:1023C0005B68002B04D00A210A48FFF793FC10BD7C
:1023D000074C2300084A1021206800F07DFC0320F0
:1023E00000F0A4FA03212000FFF7A8FCEBE7C046A9
:1023F000940200202C090020AD1D001010B5064BE2
:102400005B68002B01D0044810BD044B044A5E21D8
:10241000044801F061F8C046940200205869001099
:102420004C6A00106C670010F0B5DE4657464E4609
:102430004546E0B58BB0804616001F00149B9A46B7
:10244000159B994616AB1B789B461F2302AA944600
:10245000634400221A702BE0002809D0424612681B
:10246000127B904204D8421E4146C9688A5C41E012
:10247000404B414A4121414801F02EF807984CE079
:10248000361BAF41002F07DB002F11DA3C4B3D4AD2
:102490003F213D4801F020F8012676423B4FF3E70B
:1024A000374B384A3F21384801F016F8002F4FDBF0
:1024B00043465A68EFF3108472B6136859424B4191
:1024C000D9B20791002BF8D1BFF35F8F1F3302AA57
:1024D0009446634404930023039302934B46019371
:1024E0005346009332003B004046FFF70FFD031EAA
:1024F000B2D1020041464968BFF35F8F00250D60ED
:1025000084F31088002B29D01F2302A98C46634432
:102510001B78002BB2D112021043002B20D05B4657
:10252000002B1DD04946D04704000D0003000B438B
:102530001DD00029A4DB00F005FA06000F1EAFDB5A
:1025400036196F41002FB1DA012676420F4FADE701
:102550000B4B0C4A3F210C4800F0BEFF01204042CB
:102560000BB0F0BCBB46B246A946A046F0BD0798EA
:10257000F6E7C046C0670010646A00106C67001080
:102580007C6600100C6A001098660010FFFFFF7F49
:10259000F8B50400002900D162E04268EFF310852D
:1025A00072B6136858424341D8B2002BF9D1BFF339
:1025B0005F8FCBB22268567BB3421BD1012000282B
:1025C00048D0206988422BD0090AC9B2002B2ED0EE
:1025D0002068007B83422AD8581EE668305C884217
:1025E0002BD000206368BFF35F8F00221A6085F351
:1025F0001088F8BD002B0DD0167BB3420AD85E00C0
:10260000F618033E1768BC466644B678002ED6D04E
:102610000120D4E7134B144A6821144800F05CFFF2
:102620002C21134B134AFF31134800F055FF134B75
:10263000134A4121104800F04FFF1900100000F02C
:1026400045FC0028CED199210E4B0A4A49000A4880
:1026500000F042FF23698B42C4D100232361C1E70C
:102660000020C6E7E4670010AC6A001000680010A4
:102670007C690010F46900106C670010C0670010DE
:10268000646A0010A0690010F0B587B006000F0062
:10269000EFF30583002B1FD106246442E517A4192C
:1026A0007D418D4202D803D1844201D90024002506
:1026B000002D14DB0494059500F044F902000B1E74
:1026C00013DBA41A9D41002D17DC14D03000390013
:1026D00000F044F907B0F0BD234800F097FF234B0A
:1026E000234A3F21234800F0F7FE204B204A3F2198
:1026F000204800F0F1FE002CE8D0FFF77FFE002319
:10270000029301931C4B0093049A059BFFF78CFEE8
:10271000002818DADAE7002300E00023002BD5D1E7
:10272000164B1A68EFF3108172B61368002BFCD0B9
:10273000BFF35F8F114B1B68BFF35F8F00221A60DE
:1027400081F3108820BF0499059A0D4B5B6A9A4269
:10275000E3D80B48806A884203D29A42DBD0012337
:10276000DCE70123DAE7C046A46900107C660010AC
:102770000C6A0010986600107D1D00102C090020C6
:102780000040054070B504000D0000F0DBF80200C9
:102790000B1E0ADB200029008018594100290ADBA2
:1027A00000290CDBFFF770FF70BD084B084A3F2182
:1027B000084800F091FE012040420749F0E7034B32
:1027C000034A3F21034800F087FEC0467C660010A4
:1027D0000C6A001098660010FFFFFF7F10B5FA2208
:1027E00092000023002102F0B3FEFFF7CBFF10BDE3
:1027F00070B584B005000C00EFF30583002B1ED1EB
:10280000FFF7FCFD002302930193224B00932A0063
:102810002300FFF709FE061E23DD20BFFFF7EEFDB4
:102820003100FFF7B5FE1C4B5B6A9C422DD81A4A5B
:10283000926AAA422CD29C4225D0012026E0164B57
:102840005B6A994209D8144A926A824207D2994235
:1028500001D001201AE0002018E0002016E001203D
:1028600014E00D4B5B6A9C4209D80B4A926AAA425B
:1028700007D29C4201D0012008E0002006E00020A1
:1028800004E0012002E0002000E0002004B070BD60
:102890000120FBE77D1D00100040054070B5EFF3FF
:1028A00005801038EFF3108C72B61A4B1B68002BA2
:1028B000FBD0BFF35F8F01221300834016494B63A7
:1028C00016490B60164909780C00C440224214D006
:1028D000114A546A8200134D5259944206D3820021
:1028E000114C125999430E4B197007E00A4A031D07
:1028F0009B0099589950002200E00022BFF35F8F9F
:10290000044B002119608CF31088002A00D09047F6
:1029100070BDC046280100D0004005403C70054015
:1029200056090020300900206004002010B5010085
:10293000024A0348FEF79CFF10BDC046D06A001053
:1029400051090020044B5B6A034A906A1900536ADC
:102950009942F9D17047C04600400540084B5B6A78
:1029600001E0074B5B6A8B42FBD301E0044B5B6ADF
:102970008B4203D1024B9B6A8342F7D37047C04618
:102980000040054070B504000D00FFF7DBFF0200BA
:102990000B0020002900801859418B4202D804D135
:1029A000824202D901204042C117002902DBFFF711
:1029B000D5FF70BD024B034A3F21034800F08CFD58
:1029C0007C660010946B00109866001070B50400CF
:1029D0000D00EFF3108672B61B4B1B68002BFBD06B
:1029E000BFF35F8F002D1CD02000FEF7F5FF174BC3
:1029F00083420BD019002000FEF7F6FF01212000D2
:102A0000FEF7E2FF0123A340114A1360A400114B1B
:102A1000E550BFF35F8F0C4B00221A6086F31088DD
:102A200070BDA2000B4B0021D1500122A2400A49E7
:102A30000B7893430B7005492000FEF7FFFF002140
:102A40002000FEF7C1FFE4E7280100D09D28001018
:102A5000386005406004002056090020F0B5DE46CD
:102A600000B584B00400150001921E000293FFF728
:102A700069FF03958E4202D84ED185424CD9EFF3BF
:102A8000108B72B6274B1B68002BFBD0BFF35F8FF8
:102A9000254A17780125A540EBB23B431370234B21
:102AA0005D63221D92000199D150A2002049029835
:102AB00050501B6A2B4212D11C4B1B6C2B4208D06E
:102AC0000020BFF35F8F174B00221A608BF3108832
:102AD00023E0184B184AC521184800F0FDFCFFF709
:102AE00031FF8E4214D802D1039B834210D80E4B83
:102AF0001B78BB420ED00D4B1D625D631F2004404E
:102B00000123A3400E4A1360074B1F701E38D8E7FD
:102B10000020D6E70120D4E7012004B080BCBB46EA
:102B2000F0BDC046280100D05609002000400540F5
:102B300030090020F46A0010786B0010186B001048
:102B400080E200E0EFF3108C72B60B4B1B68002B99
:102B5000FBD0BFF35F8F01238340084A136208490B
:102B60000A789A430A70BFF35F8F034B00221A6002
:102B70008CF310887047C046280100D00040054003
:102B80005609002010B500291ED0037B99421BD89E
:102B90004B005B18033B0468A4466344002919D02A
:102BA000002A1DD0914221D0002A25D0047BA242C8
:102BB00022D80468500080180338201881701978D2
:102BC00000291FD11A7010BD104B114A68211148FD
:102BD00000F082FC104B114A6F310E4800F07CFC73
:102BE0000F4B0E4A70210B4800F076FC0D4B0B4A40
:102BF0007121084800F070FC044B054A6821054823
:102C000000F06AFC41701A70DDE7C046E46700100E
:102C1000B46C00100068001068680010A06C001010
:102C2000746800108068001070B506000D00140074
:102C3000002914D0002A14D08068736898470028AF
:102C400006D0220029003000FFF79CFF280007E093
:102C50002A0021003000FFF795FF200000E010005F
:102C600070BD0800FCE7000010B50023437301337A
:102C70008373037BC3730123027B9A4214D9002B15
:102C80000CD0027B934209D85A00D218033A01684B
:102C90008C4662440133DBB25370EDE70B4B0C4AB8
:102CA00068210C4800F018FC002A09D0924207D88D
:102CB000016853009A18033A8A180023537010BD14
:102CC000024B034A6821034800F006FCE467001049
:102CD000B46C00100068001010B50173426083608E
:102CE000FFF7C2FF10BD000070B50400081E00D140
:102CF00070BD002934D0237B994231D84B005B183A
:102D0000033B2268944663445A78002AF0D02DD0C1
:102D1000237B9A422AD853009B18033B21688C4698
:102D200063445D7800215970002825D0237B9842A8
:102D300022D843001B18033B21688C4663440021C2
:102D4000597001002000FFF76FFF060029002000E6
:102D5000FFF7CAFF020031002000FFF765FFC7E759
:102D6000084B094A6821094800F0B6FB054B064AA2
:102D70006821064800F0B0FB024B034A6821034873
:102D800000F0AAFBE4670010B46C001000680010AB
:102D900070B505000C00160000292FD034D0037B3D
:102DA000994231D84B005B18033B02689446634458
:102DB0005A78002A2ED19A78002A31D11978FFF753
:102DC00093FF0300002E0AD0EA7B002A2ED1AA7BB3
:102DD000002A03D1EA7B002A3BD1AC73EC73002BB1
:102DE0003DD1002C4FD02B7B9C424CD82B686100EE
:102DF0000C19033C1C190023637070BD254B264A37
:102E00003821264800F068FB254B264A68212648D1
:102E100000F062FB254B204A3A21204800F05CFB81
:102E2000234B1D4A3B211D4800F056FB002A0AD0C7
:102E3000297B8A4207D851008A18033A29688C46B0
:102E400062445470C3E7164B164A6821164800F0D6
:102E500043FB184B104A4221104800F03DFB002B69
:102E60000BD02A7B934208D843001B18033B2A68E7
:102E70009446634400229A70B3E7094B094A6821DB
:102E8000094800F029FB064B064A6821064800F075
:102E900023FBC046AC6B00108C6C0010B46B0010B0
:102EA000E4670010B46C001000680010086C00109B
:102EB000306C00104469001070B504000A00457BB6
:102EC0002900FFF765FF6073280070BD70B504002E
:102ED000002967D0437B8B420ED0002911D0037BA1
:102EE00099420ED84B005B18033B0268D0188378D8
:102EF000002B0CD1002056E00121FFF7DDFF01205F
:102F000051E0294B294A6821294800F0E5FA002BB5
:102F100020D0227B93421DD85A00D318033B22684D
:102F2000D2182568EB5C8B421AD0002B1BD0227B79
:102F3000934218D85A00D318033B2268D21853780A
:102F40008B4216D0002BF0D11A4B1B4A6B211B4829
:102F500000F0C2FA144B154A6821154800F0BCFA7B
:102F60004378137007E0104B104A6821104800F0B6
:102F7000B3FA43785370002383704370012220001A
:102F8000FFF706FF0200617B814205D02000FFF7BA
:102F90004BFE6073012006E0094B074A7121074888
:102FA00000F09AFA002070BDE4670010B46C0010C5
:102FB0000068001084650010746C0010B46B001081
:102FC000546C001070B5046BE30701D4200070BD91
:102FD00002003032C0239B0113430A4A1A60456A3B
:102FE000826AAD01AD18AD02062000F0BDF90649B8
:102FF00001F038FC0100280001F034FC0021FFF74B
:10300000C1FCE3E7010300004E0E000070B50400B0
:103010000E001500FFF7D6FF22002C32E16A4E4069
:10302000354080235B0113431D60206370BD0000A9
:1030300070B505000C00062000F096F9C0002100D4
:1030400001F010FCC60908D00E4B9E4216D87F2313
:10305000184001303400460800E001246C62AE6282
:10306000002200212800FFF7D1FF062000F07CF9A4
:103070008000A101891901F0F5FB70BD0026024C0A
:10308000ECE7C046FEFF0000FFFF000010B5053969
:103090004901013AD2001143002B09D002220A4310
:1030A000012B07D0002111436E22FFF7AFFF10BDA7
:1030B0000022F4E70421F6E7002909D00A22064B92
:1030C0009C466044434258414000044BC252704702
:1030D00080225200F3E7C0460080FCBF4009002078
:1030E00070B505000C00062000F03EF9061E27D042
:1030F000164B9D4226D08022D203154B1A60154BE9
:103100001A60154B9B6811009943FAD100212800E1
:10311000FFF7D2FF21002800FFF78AFF06000023F7
:10312000012208212800FFF7B1FF2A002C3280235A
:103130009B01134310221A60084B2B630323AB64DB
:10314000300070BD80221204D7E7C04600800340E3
:1031500000E0004000F0004000C00040010300001B
:10316000F8B5DE4657464E464546E0B505000F0029
:1031700092460A9A934250D31A0E91461E020A9A18
:1031800000233000494601F0ABFB80466C00641917
:10319000A400304B9C4664446368834200D2606064
:1031A0002B1FDBB29B46012B3DD9C0239B01234340
:1031B000802212011A60AB00274A9958002907D0D3
:1031C000506901F04FFB431C5800C0180338FDD272
:1031D00053465A0123685A40E0231A4080235B017A
:1031E00023431A605A46012A28D980239B0123438E
:1031F000802212011A604346636042460023300079
:10320000494601F06DFBAD00134B58510120F0BC55
:10321000BB46B246A946A046F8BD104B104A332122
:10322000104800F059F9012FBFD1C0239B0123435F
:1032300003221A60A368DB07FCD5C9E7216879403F
:1032400003220A401A60A2680123BB401342FAD04D
:10325000CBE7C0460080004088040020C06C00100E
:10326000346D0010D46C001030B583B00C2000F029
:1032700011F9FEF7DDFA00280DD0002304E09900D3
:103280002D4A2E4888500133092BF8D92A4B2C4A55
:103290005A6203B030BD2B4B00229A6700F002F94E
:1032A000294B01221A60274B5B6C012BFBD1274B6A
:1032B00003221A60234B9B6B012BFBD1013300933C
:1032C0000433234A0121234800F054F805230093D6
:1032D000214A0121214800F04DF8214B00930022A2
:1032E00002210420FFF73CFF1E4D00952B00002219
:1032F00001210520FFF734FF104C00942300002229
:1033000000210720FFF72CFF00942300002200215A
:103310000820FFF725FF0A4B00932300002200211D
:103320000920FFF71DFF00952B0000220021062039
:10333000FFF716FFADE7C04688040020006CDC02F2
:103340001BB70000008000403CB0004030B000409F
:10335000002F685900800240008C864700C0024060
:10336000001BB700405973078000014BC0587047DD
:1033700088040020F0B5C64600B504000E00170012
:103380001D00374801F06EFA8046364BFA18364B6E
:103390009A4239D80100380001F064FA0200103A6C
:1033A00098235B009A4235D86B1E062B38D8069BB3
:1033B000013B062B34D83F09474537D32D04069BE4
:1033C0001A0315432368002B36DB284B9C4244D05C
:1033D00080225201264B1A60264B1A60264B9B68AE
:1033E00011009943FAD12660A060231DC0229201EA
:1033F0001A43212313602368002BFCDAE5600823BD
:10340000136080BCB846F0BD1C4B1D4A11211D48FD
:1034100000F062F81C4B1A4A19211A4800F05CF8B7
:103420001A4B174A1C21174800F056F8184B144A3B
:103430002321144800F050F822683F231340B34280
:10344000C3D1A3681B051B0D8342BED1E368EE22E6
:10345000D2021340AB42B8D1D3E780229201B9E740
:10346000001BB70080E84BD380F8A93200C00240AF
:1034700000E0004000F0004000C00040446D00103B
:10348000846E0010A46D0010006E00101C6E001001
:10349000686E001080239B000343014AD36270478B
:1034A00000800540064BAA2212011A602F22DA6022
:1034B000044B054A1A60024B5B68002BFBDA70472D
:1034C000004002400060024000B0FA0000BEFDE78C
:1034D00010B5FFF7FBFF000010B582B00C0019001B
:1034E000002A0CD0084B002A0BD001920093230035
:1034F0000200064802F0EAFA0120FFF7E7FF044B5A
:10350000F1E7034AF1E7C046906E0010A06E00108C
:10351000F861001070B52B4B2B4A1A602B4B2C4ACC
:103520001A602C4B9A682A4B9343FAD12A4C01E03B
:1035300008CC9847294B9C42FAD3FFF795FE234BC2
:10354000274A1A60234B9B68DB43DB01FAD1254BEA
:1035500040229A675A671A67DA66234C09E0234BC0
:10356000234A87212348FFF7B7FF2000FEF7CAFB55
:103570000834214B9C4209D22368002BF5D0012B43
:10358000EDD12000FEF7CBFB0834F2E71B4CA1681D
:103590001B4DC022280002F041F9A560EFF305831E
:1035A000002B00D000BEFEF77DF9FEF795FBFEF77D
:1035B00005FF144C01E008CC9847134B9C42FAD30A
:1035C00070BDC04600E00040BFCDFBFE00F00040F3
:1035D000FE7F3C0000C000401003002020030020BC
:1035E000FFFFFF0100F0014008030020D06E001033
:1035F000606F0010F06E00101003002000ED00E07E
:103600000000002020030020240300200FB400B598
:1036100083B0084802F02AFA049B002B07D005A9C2
:103620000191180002F032FA034802F01FFA01205B
:10363000FFF74CFF506F0010986200109A4200D2C2
:1036400088547047704710B5002802D00B6849684D
:10365000984710BD0100002007E083001B185B00A5
:10366000501C08601078C01830380A681378303B56
:10367000DBB2092BF1D97047F0B5DE4657464E460E
:103680004546E0B583B093461F000C9B9A460D9CBF
:103690000E9B99460F9B9B0703D0B8460F00060070
:1036A00022E00192A34688464E46B9460700B4423E
:1036B00007D2551C4B4641462020B84701342A000A
:1036C000F5E73D004F465C46019B9B46B1464646AA
:1036D000B84637002E0007E0013C551C5346185DE4
:1036E00043463900B0472A00002CF5D135003E0092
:1036F00047460F9B9B0707D4100003B0F0BCBB46A6
:10370000B246A946A046F0BDB0464E46B9462F0087
:103710005D46531BB342EFD2541C4B46414620201A
:10372000B8472200F5E7F0B5CE46474680B585B0EC
:10373000944698460C9D0D9C0EAB1B789946109AAA
:10374000119B129EB7071CD4002B0CD0F7070AD58B
:103750004F46002F02D10C37374204D0013B02E024
:1037600030272F550134944201D21F2CF8D9F70786
:1037700007D59C4205D21F2C03D830272F55013482
:10378000F5E7F70615D5770505D4002C03D094424C
:1037900024D09C4222D00F9A102A2BD00F9A102AA4
:1037A00030D00F9A022A35D01F2C02D830222A5549
:1037B00001341F2C05D84A46002A31D02D222A5523
:1037C0000134039602930194009543466246FFF745
:1037D00053FF05B0C0BCB946B046F0BD621E012C17
:1037E00006D00F9F102F01D01400D4E7023CD2E77F
:1037F0001400D0E7B206D1D41F2CCFD878222A5596
:103800000134D1E7B206CCD51F2CCAD858222A558C
:103810000134C9E71F2CC7D860322A550134C3E7E9
:10382000720703D52B222A550134CAE73207C8D5BF
:1038300020222A550134C4E7F0B5DE4657464E46ED
:103840004546E0B593B081468A46089209931CAB81
:1038500010CB1B789B461E9D219B9846002C03D1C4
:10386000102342469A4390468023DB0046461E4082
:1038700042461A4212D0002C22D000260EE03033ED
:10388000D9B2771C0AAB99552900200000F0EAFF55
:10389000AC4216D31F2F14D83E000400290020008C
:1038A00000F0E0FFCBB2092BE9D94246920605D5DC
:1038B0004121C918C9B20A39C9B2E2E76121F8E762
:1038C000270043460693209B05931F9B0493039573
:1038D0005B46029301970AAB0093099B089A5146F5
:1038E0004846FFF720FF13B0F0BCBB46B246A946DE
:1038F000A046F0BDF0B5DE4657464E464546E0B51B
:1039000095B0089009910A920B931E9E1F9C20ABC4
:103910001B789B46229B9946239D269B9A46330003
:10392000234303D1103352469A4392468023DB004F
:1039300057461F4052461A4219D0330023432DD018
:10394000002714E03033DAB27B1C98460CABDA5512
:103950004A462B003000210000F0C2FFA5421FD8CC
:1039600019D043461F2B1BD8474606000C004A4679
:103970002B003000210000F0B3FFD3B2092BE1D9B6
:103980005246920605D54122D218D2B20A3AD2B294
:10399000DAE76122F8E7B145E3D901E00023984670
:1039A00053460693259B0593249B04934B46039310
:1039B0005B460293434601930CAB00930B9B0A9A20
:1039C00009990898FFF7AFFE15B0F0BCBB46B246A8
:1039D000A946A046F0BD0000F0B5DE4657464E466B
:1039E0004546E0B591B083468A460C9298461A9CAB
:1039F00008941B9D099522002B002000290001F04E
:103A0000FAF9002800D0E5E001225242D74B20000D
:103A1000290001F0EBF9002800D0DBE0012252423E
:103A2000D34B2000290001F0CBF9002800D0D1E0D1
:103A300000220023089E3000099D290001F0C0F9F2
:103A4000002800D0DDE008980999069007918023AE
:103A5000DB001E9A1A400D921E9A1A4201D10623CB
:103A60001C930698079904000D000A000600024303
:103A700000D1D1E0080D4005400DBE4CA446604485
:103A80000A03120BBC4B13431F0001F0C7F9BB4ADA
:103A9000BB4B01F052F9BB4ABB4B01F027F90400C4
:103AA0000D000022B94B3000390001F016F9B84A78
:103AB000B84B01F042F902000B002000290001F090
:103AC00015F901F0C3F9814601F0A8F904000D00D1
:103AD000B14AB24B01F031F90022B14B01F006F9C5
:103AE00001F0B4F90600AF4AAF4B2000290001F005
:103AF00024F904000D00300001F090F9AB4AAC4B02
:103B000001F01BF902000B002000290001F0E5F88C
:103B100004000D0002000B0001F00FF90A900B9158
:103B2000A44BF31800261F0522002B0020002900BB
:103B300001F0DCF80E900F9122002B000020802174
:103B4000C90501F0CAF804000D0000229A4B0A983A
:103B50000B9901F0D4F80022984B01F0C7F802004D
:103B60000B000A980B9901F0CAF80022944B01F05F
:103B7000BDF802000B000A980B9901F0C0F8020092
:103B80000B002000290001F0B1F802000B000E9894
:103B90000F9901F0B4F80022774B01F0A7F832003A
:103BA0003B0001F0CAF806000F0004000D00069A61
:103BB000079B01F01BF9002830D001235B429C4693
:103BC000E14400227D4B3000390001F098F80400F8
:103BD0000D0023E01E9B04931D9B03931C9B0293EB
:103BE000089A099B0092019343460C9A5146584605
:103BF00000F0FCF811B0F0BCBB46B246A946A046A6
:103C0000F0BD0023002406930794069680231B062C
:103C10009C46654407951AE7002399464B46633353
:103C2000C62B1ED804261E9B1B0526D52B0023431E
:103C30000FD0644A644B0698079901F0CFF800282A
:103C400079D00022614B0698079901F0B9F8002855
:103C500071D01C9B4B4506DD4A46981A431E1C93A7
:103C600003E00526DFE700231C938023DB001E9A78
:103C70001A431E920026002399461D9B9E4264D241
:103C80009F1B02231E9A1A400A921E9A134202D0C8
:103C9000002E00D000274B46002B07D022002B001F
:103CA0000698079901F02BF806900791002200234F
:103CB0000898099901F084F8002848D1444B1E9ACD
:103CC0001340049303971C9B0293069B079C00934D
:103CD000019443460C9A5146584600F087F8002E4E
:103CE00000D187E71E9B9B063DD54525441C4346D6
:103CF000020051462800D8474B46DA179B1853401C
:103D000005220592013E0496002203920A32029295
:103D10004A46D00F01900093434622005146584630
:103D2000FFF78AFD0A9B002B00D163E702005F4684
:103D30000C9E1D9D54E01C9B002B9ED00D9B002BC8
:103D40009BD01C9B013B1C9397E7002799E7069C9F
:103D5000079D2200290080200006844661440B0054
:103D600006920793AAE76525C0E7C046FFFFEF7FED
:103D7000FFFFEFFF01FCFFFF0000F03FFB799F50CA
:103D80001344D33FB3C8608B288AC63F0000F83F76
:103D900061436F63A787D23F71A379094F930A40AC
:103DA0000000E03F1655B5BBB16B0240EF39FAFE9B
:103DB000422EE63FFF03000000002C40000024409C
:103DC000000018402D431CEBE2361A3F80842E4140
:103DD000FFF7FFFF541C434651462020B8472200FE
:103DE000931BAB42F6D3100004E7C046F0B5DE46A5
:103DF00057464E464546E0B595B006900791934626
:103E00009946209F1E9A1F9B1000190000F0F3FF97
:103E1000002831D101225242BF4B1E981F9900F059
:103E2000CFFF002837D101225242BC4B1E981F9968
:103E300000F0DCFF00283DD10022B94B1E981F99ED
:103E400000F0D4FF002850D10022B64B1E981F99D5
:103E500000F0B6FF002848D1002200231E981F99C9
:103E600000F0AEFF002850D100239846229B5B054E
:103E700000D4B6E0002458E0229B0393219B0293D8
:103E800003230193A84B00934B465A460799069883
:103E9000FFF7F2FB0EE1229B0393219B0293042385
:103EA0000193A24B00934B465A4607990698FFF799
:103EB000E3FBFFE00423229A1A4022990B4210D020
:103EC0009B4B002A0FD00422229903912199029141
:103ED000019200934B465A4607990698FFF7CCFB90
:103EE000E8E0944BEDE70322EEE7229B0493219B4D
:103EF000039302971E9B1F9C009301944B465A46C6
:103F000007990698FFF768FDD4E01E9A1F9B0020D2
:103F1000002100F0E2FE1E901F9101239846A5E7C4
:103F20000CAB30221A55013F01341F2C01D8092F48
:103F3000F6D81E981F9900F089FF050000F06EFF6B
:103F400002000B001E981F9900F0C7FEFA007A4B82
:103F50009B181A685B680A920B9300F0EEFE0890BB
:103F6000099100F097FF060000F054FF02000B00DB
:103F70000898099900F0B1FE0890099100226F4B52
:103F800000F034FF00282ED00136300000F042FF50
:103F900002000B000A980B9900F018FF002801D0CE
:103FA00001350026002F2CD1280000F037FF020039
:103FB0000B001E981F9900F090FE06000F000022D3
:103FC0005E4B00F0FDFE002846D100225B4B300026
:103FD000390000F00BFF00283ED1EB073CD501353E
:103FE0003AE0062746E70022544B0898099900F06A
:103FF000E7FE0028D6D1002E01D0F307D2D5013636
:10400000D0E7AA461F2C11D8013F0A21300000F04A
:1040100029FC651C30310CAB19550A21300000F029
:1040200021FC092E0ED906002C00EBE755461F2C6B
:104030000CD87B1E002F09D00CAA302111551F006F
:104040000134F4E72B0055461C00F0E71F2C03D881
:104050000CAB2E221A5501341F2C10D80A2128002F
:1040600000F0D8FB661C30310CAB19550A21280032
:1040700000F0D0FB051E01D03400EDE7340003232F
:10408000229A1340012B1CD01F2C06D84346002B2C
:1040900032D00CAB2D221A550134229B0393219B65
:1040A000029301940CAB00934B465A46079906982D
:1040B000FFF7E2FA15B0F0BCBB46B246A946A046EF
:1040C000F0BD219B002B13D04346002B02D10C33B3
:1040D00013420FD0219B013B2193190003E00CAB4D
:1040E00030221A5501348C42CED21F2CF7D9CBE79F
:1040F0002199F8E72199F6E7229B5B0704D50CABE1
:104100002B221A550134C8E7229B1B07C5D50CABDF
:1041100020221A550134C0E7FFFFEFFFFFFFEF7FBA
:1041200065CDCD4165CDCDC17C6F0010806F001095
:10413000746F0010706F0010687100100000E03F95
:10414000F0B5DE4657464E464546E0B593B082464A
:104150008B4690461193002900D1EBE2002755468B
:10416000119B1878002800D1E7E2252809D07C1C93
:1041700043463A005946A847119B01331193270043
:10418000EEE7013311930024119A11780B00203BC4
:10419000D8B2102803D88300D048C3589F460B00DC
:1041A000303BDBB2092B2CD92A292FD000230A93CC
:1041B000119B1A782E2A39D000239A46119A137827
:1041C000683BD9B2122976D88B00C549CB589F4697
:1041D00001231C4301321192D6E702231C43013212
:1041E0001192D1E704231C4301321192CCE708233A
:1041F0001C4301321192C7E710231C430132119274
:10420000C2E711A8FFF726FA0A90D1E71C9B1A1DF6
:104210001C921868002804DB0A90119B013311934B
:10422000C6E702231C4343420A93F6E78022D200EA
:1042300014435A1C11925A781300303BDBB2092BFD
:1042400004D92A2A07D000239A46B7E711A8FFF716
:1042500001FA8246B2E71C9B1A1D1C9218680028BE
:1042600004DB8246119B01331193A7E70020F8E796
:1042700080235B002343511C119152786C2A01D09A
:104280001C0018E0C0239B001C430131119112E077
:1042900080232343511C11915278682A01D01C00BD
:1042A00009E0C0231C430131119104E080235B002D
:1042B0001C4301321192119B18780300253BDAB29E
:1042C000532A00D92CE29300864AD3589F46802374
:1042D0009B001C4301321192EDE780235B001C43DD
:1042E00001321192E7E7782809D0582838D06F2892
:1042F00038D0622838D010239C430A2600E01026CC
:10430000582833D0692803D0642801D00C22944364
:10431000630501D50122944369282AD0642828D056
:10432000A30500D59FE0E30500D5B8E0630600D4FF
:10433000CAE01C9A111D1C911168FF220A400594C5
:104340000A9B049353460393029600230193009221
:1043500043463A0059462800FFF76EFA070027E067
:104360001026CDE70826CBE70226C9E72022144312
:10437000C8E7A30520D4E30550D4630666D51C9A8C
:10438000111D1C911168FF220A40D317D118594002
:1043900005940A9B0493534603930296D20F01920D
:1043A000009143463A0059462800FFF745FA0700B6
:1043B000119B01331193D3E61C9BDA1D07218A431D
:1043C000110008311C91116853689C46DB170C934F
:1043D0000D930C9A0D9B100048400E90624653407E
:1043E0000F930E980F990C9A0D9B801A99410E907D
:1043F0000F9108940A9B0793534606930496002353
:1044000005936346DA0F02920090019143463A0009
:1044100059462800FFF76EFA0700C9E71C9A111DDC
:104420001C911268D317D118594005940A9B049324
:10443000534603930296D20F0192009143463A00ED
:1044400059462800FFF7F8F90700B1E7230605D51C
:104450001C9A111D1C910023D25E96E71C9A111D17
:104460001C91126891E71C9BDA1D07218A431100F9
:1044700008311C9108940A9B0793534606930496AF
:1044800000230593029313685468009301944346F4
:104490003A0059462800FFF72DFA070088E71C9AD2
:1044A000111D1C9105940A9B049353460393029695
:1044B000002301931368009343463A0059462800AD
:1044C000FFF7BAF9070073E723060DD51C9A111DF3
:1044D0001C9112681204120C31E7C046886F00105C
:1044E000CC6F0010187000101C9A111D1C911268DE
:1044F00025E746281AD01C9B0733072293431A004E
:1045000008321C9204940A9A0392524602925C6802
:104510001B680093019443463A0059462800FFF770
:1045200065FC0700119B0133119319E620231C43FE
:10453000E1E7672801D0472802D180231B011C43F3
:10454000452801D0472801D120231C431C9B073359
:10455000072293431A0008321C9204940A9A039289
:10456000524602925C681B680093019443463A00ED
:1045700059462800FFF730FA0700119B01331193C9
:10458000EEE502231A002240924623421FD0012466
:104590001C9B1A1D1C927A1C9146187843463A00BF
:1045A0005946A8475346002B16D1119B013311934E
:1045B0004F46D5E5561C434659462020B8472300B0
:1045C00032005C1C9D42F5D83D001700E0E7012356
:1045D0003A002F000A9DF4E74A46A9460A9D06E0E4
:1045E000571C434659462020C84734003A00661CF1
:1045F000A542F5D84D469146D7E71C9B1A1D1C9243
:104600001B6899465346002B00D1013B4E4601E002
:10461000013613003278002A02D05A1E002BF7D13F
:104620004B46F21A10928023DB0026001E401C42EB
:1046300003D0524501D95346109302231A00224059
:104640000B92234205D03A0037004C46A946554606
:1046500020E03A00109B5F46B3462E0006E0551C52
:10466000434639002020B04723002A005C1C0A99E9
:104670009942F4D835005E46BB46109437004C464C
:10468000A946554606E01D000134561C43465946CE
:10469000C84732002078002804D0002FF4D06B1EC9
:1046A000002DF0D117004D460B9B002B03D1119B21
:1046B0000133119354E50A9F109B06E0561C4346B4
:1046C00059462020A847230032005C1C9F42F5D8A1
:1046D0001700ECE721231C431C9B1A1D1C921B682E
:1046E00000930594082304935346039310230293E5
:1046F0000023019343463A0059462800FFF79CF8EF
:104700000700119B013311932AE57C1C43463A00B4
:1047100059462520A847119B0133119327001FE517
:104720007C1C43463A005946A847119B013311931C
:10473000270015E50A4B9A4610E5AA46474502D3DD
:1047400043465A1E00E03A00434659460020D047EF
:10475000380013B0F0BCBB46B246A946A046F0BD37
:10476000453600100CB410B584B00A0006AC08CC75
:104770000394009401000448FFF7E2FC04B010BC6D
:1047800008BC02B01847C0463D36001000B585B0E1
:10479000029003910121009313004A4202A90248AA
:1047A000FFF7CEFC05B000BD4736001001480421DC
:1047B000014B1847C0020020DD47001010B5010072
:1047C00018231B8814221088984710BD10B50100CB
:1047D00018231B8816221088984710BDF0B5C646CE
:1047E00000B507000E0000250123984600E00135C2
:1047F000B5420AD2AC003C192068FFF7DFFF206009
:104800000028F4D100239846F1E7404680BCB84622
:10481000F0BD0000124A936F9B0815D29066D166D6
:10482000002905D0FFE7FFE7FFE7516F106F7047E2
:1048300004B580210906C2175140002800D0C843A2
:1048400001F072FC002104BDF0B5146E556E576F77
:10485000166FFFF7E3FF1466556657671667F0BDDE
:10486000000000D0114A936F9B0813D21066516666
:10487000002905D0FFE7FFE7FFE7516F106F704792
:1048800004B5002801D00020C04301F04DFC0021F8
:1048900004BDC046F0B5146E556E576F166FFFF726
:1048A000E5FF1466556657671667F0BD000000D037
:1048B00094464A4A926F9208624601D228E0C04666
:1048C000F0B5464E346E756E776F366F00F020F897
:1048D0009446424A14665566576716676246F0BDAD
:1048E00094463E4A926F9208624601D254E0C04616
:1048F000F0B53A4E346E756E776F366F00F04CF847
:104900009446364A14665566576716676246F0BD88
:10491000002B24DB11D000293EDA00B5C943404208
:1049200000D1013100F038F8C943404200D10131D3
:10493000DB43524200D1013300BD002AEBD10028F5
:1049400001D1002905D00020C90FC90701D1C043FA
:10495000410800B501F0E0FB0022002300BD00B5D6
:1049600000290ADBDB43524200D1013300F014F886
:10497000C943404200D1013100BDC943404200D18A
:104980000131DB43524200D1013300F005F8DB4333
:10499000524200D1013300BD002923D1002B18D190
:1049A000002A0CD0BC460D4F38667A6600210023E1
:1049B000FFE7FFE7FFE77A6F386F67467047002829
:1049C00001D00748010000B501F0A6FB002200233A
:1049D00000BD02000B00002000217047000000D045
:1049E000FFFFFFFF002B00D0BFE0130C28D1002AEF
:1049F000E7D080B4114F39667A66FFE7FFE730B43D
:104A0000040C7B6F396F1B0423433B667A66FFE718
:104A1000FFE7FFE7C04684B27B6F3D6F1B04234373
:104A20003B667A66FFE7FFE7C04600232C042D0CA7
:104A30007A6F386F00196941B0BC7047000000D030
:104A4000F0B594460025140E01D112020835140F5A
:104A500001D112010435940F01D192000235D40F17
:104A600001D152000135D40B0134254F7C66254C11
:104A70003C660E0C93B2FFE7FFE7FFE73C6F66432F
:104A8000360C7703BE467343DF0B5B04C01AB94193
:104A9000130C7343DB18C91ACE086643360CB644B0
:104AA00093B273431F0F1B01C01AB941130C734318
:104AB0001F0B1B05C01AB941860D8F023E4366438A
:104AC000360C092D24DB520A7243801A7703460AFA
:104AD0006643360C16235B1BDE40DF40BF1964467D
:104AE0006643821B7046043506330100D940A84056
:104AF000C01900D30131A24206D20023F0BD00004C
:104B0000000000D0FFFFFFFF121B0130F3D3F1E7DD
:104B100009277F1BFE406446A2B27243801A00D26E
:104B20000139220C7243130C1204821A99410B00B2
:104B30007046043513370100F940A840801900D3AE
:104B40000131002B02D1A2420AD2F0BD013000D3C4
:104B50000131121BFAD2013BF8D1A24200D2F0BDC2
:104B6000013000D30131121BF7E7F0B51C0C00D067
:104B700080E00CB400251C0A04D11B02160E33433E
:104B8000120208351C0B04D11B01160F334312010E
:104B900004359C0B04D19B00960F334392000235E1
:104BA000DC0B02D192185B4101351C00971864415F
:104BB0000134464F7C66464C3C660E0CFFE7FFE72F
:104BC000FFE7C0463C6F6643360C7703BE4697B29C
:104BD0007743C01B00D20139C01B00D201399FB2FC
:104BE0007743C91BC91B170C77437E04FF0B801B3F
:104BF000B941CE086643360C0C2D33DBB644120B9C
:104C00001F053A431B0B97B27743C01B00D20139F3
:104C10009FB27743C91B170C77433E043F0C801BA0
:104C2000B941860D8F023E43664329277F1BFE4014
:104C30000C3D7746AF40BF1930BCA2B2ABB2724355
:104C40007343801A9941220C7243130C1204801A88
:104C5000994102000B000137001BA941F9D2781ECF
:104C60000021F0BD0C277F1BFE4077467F0BAF4035
:104C7000FF19E0E700245D1C07D0144F7D663966FC
:104C8000FFE7FFE7FFE7FFE73C6F95B29EB26543A2
:104C90006643401BB141150C1E0C65436643360448
:104CA0002F0C3E432D04401BB141994204D2020017
:104CB0000B0020000021F0BD01D19042F7D3801AF3
:104CC000994101349942F2D3F6E70000000000D088
:104CD000FFFFFFFF48404140484018B41B4B5B6852
:104CE000FC46019308BD04DFC74F001018B4174BF2
:104CF0001B68FC46019308BD00DFD14F00109446AD
:104D0000134A926F920809D2624618B40F4BDB68BF
:104D1000FC46019308BD0CDF895200100C4AF0B527
:104D2000146E556E576F166F6246FFF7EEFF084A16
:104D30001466556657671667F0BD18B4034B9B6839
:104D4000FC46019308BD08DF2D5100101C06002011
:104D5000000000D0FFB550404240504059404B4009
:104D6000594000E0FFB5154F4C00640D03D0BC4224
:104D700004D10C0314D80020090D09055C00640D52
:104D800003D0BC4204D11C030AD800221B0D1B0512
:104D900001264B4009D44B4003D58B4200D18242BF
:104DA000FFBD9942FCD19042FFBD0B43DB1803438A
:104DB0001343F5D0C9434918FFBD0000FF070000A9
:104DC00000B5FFF7CFFF804100BDC04600B5FFF73B
:104DD000C9FF01D9002000BD012000BD00B5FFF7CB
:104DE000B9FF01D9002000BD012000BD00B5FFF7CB
:104DF000B1FF804100BD012040054A00121804D8CF
:104E00005A00121801D80020704701207047002076
:104E1000704700000021002805D17047C1174840A5
:104E2000401AFAD0C90713B5064B1B6898470CBC4B
:104E3000441CA2401005120B0349091B0905194324
:104E4000114310BD280800201F04000010B54C00BD
:104E5000620D8023D218DB00D21A5B057E2A10DD9A
:104E60009E3A13DACC170903490819435242D1403C
:104E7000640001341532202A05DAD040084360432B
:104E800010BD002010BD0846604310BDC80FC018FB
:104E9000013810BD18B4044B5B6AFC46019308BD91
:104EA00024DF3954001000001C06002018B4044B05
:104EB000DB6FFC46019308BD7CDFB9540010000095
:104EC0001C06002070B513231C78012C14D0012C73
:104ED00014DC022C02DC1F4A1F4B9A641F48FFF7A8
:104EE0006DFC1F4B186070BD99001A481A4A885013
:104EF00001331F2BF8D9EAE70023FAE71948FFF737
:104F000065FC05001848FFF761FC023803789B0038
:104F10007F2B19DD802229000F4800F07FFC022C36
:104F2000D7D1124B1A88B5231B029A4209D1104BD4
:104F30001A88104B9A4204D10F4B1A880F4B9A4291
:104F4000C7D00020FEF762FB0D4B0E4A32210E48FF
:104F5000FEF7C2FA8D4F00101C0600204C330000F3
:104F60002808002053440000534600005438000035
:104F7000D8380000494600009C380000594600001F
:104F8000B8710010707200100C72001007B5604606
:104F9000002800D100BE01880A0A0230DF2AFAD1B7
:104FA000C9B2820804D3028840880004104300E09C
:104FB0000068024A5050039007BD00001C06002004
:104FC0000FB403BC0CBCF0B50124E407634000E05F
:104FD000F0B50C0DCF0F661E3605891B640503D393
:104FE000C943404200D30131640D03D0661CF60A68
:104FF00007D0E41B00207F00791C89078912803CC0
:1050000024031D0DDF0F6E1E36059B1B6D0503D39C
:10501000DB43524200D301336D0D03D06E1CF60A00
:1050200007D0ED1B00227F007B1C9B079B12803D5D
:105030002D032F1B661B58D4A446202E46DA20379A
:105040001400BC401D00BD40F24033412A4380188B
:105050005941CB0F05D0C943C0430022644250419F
:10506000514162464D0D28D10D0D07D100281FD0AA
:10507000241940414941013A0D0DF9D0640006D38D
:10508000013000D30131002C01D140084000013A29
:105090000BD4941CE40A04D112051144DB07194413
:1050A000F0BDD907204B194300E0D9070020F0BD1F
:1050B0000029DDD1002CDBD1F0BD0132C60740084C
:1050C000CD0728434908002EE1D0D9E73C2E29DA44
:1050D000203E40371400BC4000D00124F24014436D
:1050E0001A00BB401C43D317ACE7AC46202F08DAAC
:1050F00020360400B4400D00B540F8403941284343
:10510000A5E73C2F0CDA203F40360400B44000D025
:105110000124F84004430800B1400C43C117EAE7FA
:1051200010001900002494E70000F07FF0B50C0D8A
:10513000661E3605891BE60A6405640D02D0651CEF
:10514000ED0A04D0002001210905803C2403A44677
:105150001C0D671E3F05DB1BE70A6405640D02D0CA
:10516000651CED0A04D0002201231B05803C2403AA
:105170007740644497B484B296B27443070C7E437C
:10518000150C6F4380B26843361802D30120000427
:105190003F183004350C00197D41844688B29AB21C
:1051A00050430C0C62431F0C7C438EB27E43921919
:1051B00002D301263604A4191604170C36186741C9
:1051C00001BC81B29AB25143040C62431B0C5C4394
:1051D00080B25843121802D301200004241810048E
:1051E000130C401863412D185E410020474106BC56
:1051F00088B293B258430C0C6343120C544389B2E7
:1052000051435B1802D301210904641819041A0CD4
:10521000091862416D1856410020474118BCF90237
:10522000720D1143F0026A0D1043ED020A0D03D115
:105230006D1940414941013B124E9B1B7600B34220
:105240000ED26D0007D3013000267141664635430A
:1052500001D1400840001B05C918E4072144F0BDF6
:105260000BDA013306D1013004D101314F0D01D0E9
:105270004908F2E7E1070020F0BD013631050020C2
:10528000EBE70000FF030000F0B51C0D671E3F05B3
:10529000DB1BE70A6405640D02D0661CF60A04D025
:1052A000002201231B05803C2403D0252D06002667
:1052B000F6432E661E096E66CE0FF619B4464900F7
:1052C0004F0D02D07E1CF60A03D000200021403F83
:1052D0003F033E1BB600B444013F7F05C91B49088C
:1052E0002E6F013676089C02950D25437543ED130C
:1052F0007543AD1301356D10F603761B0CB4CC026B
:10530000450D2C43A2B2B3B25A43270C7B43350C54
:105310006F43A4B26C431B1902D3012424043F1928
:105320001C041D0CA4187D4124196D41009A91B2F2
:10533000ACB26143170C7C432B0C5F4392B25A43CF
:10534000A41802D301221204BF182204230C5218FD
:105350007B41019C6C431B19520ED9010A43440145
:10536000A01A81B2B2B2514303145A43360C7343AC
:1053700087B27743D617D21900277E4136049B198E
:105380001704160C7F185E417316ED18F301002602
:1053900080337541A90F06D16400690AE8055B0AEC
:1053A000184309D22FE00422944480337541A90A9E
:1053B000A8059B0A184326D3404149412404009A7A
:1053C000019B0D005543641B4343E41A95B286B21A
:1053D0007543170C7E43030C5F4392B25A43B618D1
:1053E00002D301221204BF183204330C52197B413C
:1053F00052429C41002C02D400220130514140080D
:10540000CA071043490802B06246D7079210084BFA
:10541000D218084B9A4203D212058918C919F0BD57
:105420000020002A01DC3900F0BD01331905F5E741
:10543000FD030000FE070000002200B5203200F04E
:1054400004F8080000BD000000220B150AD410B5B6
:10545000944600F05FF81414013400DA0021CB17F1
:10546000144C20470020002170476244343A0CD489
:105470000C2A07DA04009140904052422032D44076
:10548000214310BDD843D94310BD203207D40C4668
:105490009440524220321141D040204310BD0800B8
:1054A000C917203203D452422032104110BD1800D7
:1054B000190010BD6B5400104A00520D144BD21A43
:1054C00013DDFF2A1EDAD205CB0FDB071A43C30018
:1054D000400F0903490A084310435B0001D301D080
:1054E000013070474308FBD2704702D0C80FC00795
:1054F00070470A0312130132F8D1420F072AF5D17F
:10550000012200E0FF22C80F00028018C00570478A
:10551000800300000A0DCC0F531E1B05C91A52054B
:1055200003D3C943404200D30131520D03D0531C71
:10553000DB0A07D0121B00206400611C8907891256
:10554000803A1203014BD21A70470000FF0300009B
:1055500051434343C9188C46110C83B24B4310B4DA
:10556000040C614392B280B2504362431C041B0C92
:10557000001910BC59411304120CC0185141614468
:105580007047000048404140484000239C46114B72
:105590005B68184700239C460E4B1B6818470E4A51
:1055A000936F9B0804D200239C460A4BDB68184784
:1055B000F0B5146E556E576F166FFFF7F4FF064A7D
:1055C0001466556657671667F0BD00239C46014B6D
:1055D0009B6818472C080020000000D007B5484001
:1055E0004140484001E0C04607B54200120E03D0DA
:1055F000FF2A03D1420218D8C00DC0054A00120E7E
:1056000003D0FF2A03D14A020FD8C90DC9050122D0
:10561000414005D4414001D5814207BD884207BDC4
:105620000143491801D0C043001807BD00B5FFF77A
:10563000DBFF804100BDC04600B5FFF7CFFF8041D2
:1056400000BD0000C10FC90700D54042002817D097
:10565000F44603B40B4B1B68984706BC81409E3848
:105660004042803107D20B0607D04900490AC005E5
:105670001043084360470130F8E7490A8902F5E71B
:10568000704700002808002000239C46014B5B6AFD
:10569000184700002C080020034BDB6FFC4618471E
:1056A0007CDFDD57001000002C08002070B51323AC
:1056B0001D782A48FFF78AF80400012D11D0012D2A
:1056C00009DDA31E1B789B007F2B40DD802221007B
:1056D000234800F0A3F82348FFF770F8224B186026
:1056E00070BD542201001E4800F098F81F4B1A8824
:1056F0001F4B9A421CD1A7239B011A881D4B9A422B
:1057000016D11D4B1A881D4B9A4211D11C4B1A8879
:1057100094239B019A420BD11A4B1A881A4B9A4236
:1057200006D11A4B1A681A4B9A4201D1152307E089
:105730001848FDF76BFF99001748094A8850013354
:105740001F2BF8D9144A064B1A62DA61B7E7134BDC
:10575000134A42211348FDF7BFFEC04653460000DE
:105760002C0800204C33000028080020EE290000FF
:10577000C40F0000C20D0000962B0000C0B5000051
:10578000182B0000CC2A000010B50000FC2C0000F3
:1057900051ED8764F8610010A95700108472001061
:1057A0001C730010B872001007B56046002800D1C5
:1057B00000BE01880A0A0230DF2AFAD1C9B2820883
:1057C00004D3028840880004104300E00068024AC5
:1057D0005050039007BD00002C080020C30FDB07CA
:1057E00041000A0E07D0FF2A08D00909054A891886
:1057F0001943400770471900002070470249C91833
:10580000FAE70000000000380000F07F01480421A2
:10581000014B1847D0020020DD470010014B5B68A8
:1058200018470000D002002010B503000800110046
:105830001B68984710BD0000F8B507000D00160062
:10584000437D002B02D0002400200CE003681100EF
:10585000280098472DE03B7D10E0022115483B6869
:105860009847601C0134B44214DA002CF3DD2B1984
:10587000013B1B780D3B5A425341DBB22A5D0A2A99
:10588000F0D1002BEED1A042E7DA211A28183B68AC
:105890009847E2E7B04203DA311A28183B68984784
:1058A000002E06DDAD19013D2B780D3B5A425341C8
:1058B0003B75F8BD0874001070B505000368002B37
:1058C00016D00C4B1C6805E0290004C92000FFF726
:1058D000B3FF2469002C09D02368002BF9D0064BB4
:1058E0001B68002BF0D0A342F3D1EDE700232B601F
:1058F00070BDC046FC0500200006002070B5050004
:105900000C000B68802B05D021684B1C23606418A9
:10591000257170BD0800FFF7CFFFF5E710B5FDF763
:1059200011F802000B1E0BDB0D48002112184B4131
:10593000002B0BDB002B0DDB0A4800F0FDFB10BD3C
:10594000094B0A4A3F210A48FDF7C6FD012252428F
:10595000084BEFE7044B054A3F210548FDF7BCFD26
:1059600040420F00080300207C660010F073001016
:1059700098660010FFFFFF7F10B5024800F0C4FBDF
:1059800010BDC04608030020F0B5CE46474680B59E
:1059900083B006000D0090461C00FFF7BFFF814654
:1059A0006B1C05D0002C08D0194F1A4B1C6807E05F
:1059B000300000F077FB0500F4E7174FF5E72469A6
:1059C000002C17D02368002BF9D0144B1B68002B38
:1059D00001D0A342F3D12A0031002000B84743464A
:1059E000002BECD06B46D91D0A230B70012220003E
:1059F000B847E4E74B46002B07D16B1E9D41E8B248
:105A000003B0C0BCB946B046F0BDFFF7B5FFF4E740
:105A100029580010FC05002039580010000600200D
:105A2000094A01E010331A001368002B08D08342A2
:105A3000F8D1002907D1036913600023036102E054
:105A4000002900D010607047FC05002010B5064BFF
:105A50001C6801E098472469002C03D06368002B80
:105A6000F8D1F8E710BDC046FC05002070B5050070
:105A700000F018FB04000023012201002800FFF7BA
:105A800083FFFFF7E3FF200070BD000070B5A2B0F8
:105A900004000E00FFF742FF0500002301933300CE
:105AA000220001A90848FEF771FE040001A8FFF7D3
:105AB00003FFFFF7CBFF002D02D1200022B070BD05
:105AC000FFF75AFFF9E7C046FD5800100FB400B5C4
:105AD00083B004A901C90191FFF7D8FF03B008BC46
